{
  "address": "0x848c0fF71731CE5568e7ae9C4A8cfE0aE12642dc",
  "abi": [
    {
      "inputs": [
        {
          "internalType": "uint8",
          "name": "_fee",
          "type": "uint8"
        },
        {
          "internalType": "address",
          "name": "_protocolManager",
          "type": "address"
        },
        {
          "internalType": "address",
          "name": "_USDC",
          "type": "address"
        },
        {
          "internalType": "address",
          "name": "_USDT",
          "type": "address"
        }
      ],
      "stateMutability": "nonpayable",
      "type": "constructor"
    },
    {
      "inputs": [
        {
          "internalType": "address",
          "name": "target",
          "type": "address"
        }
      ],
      "name": "AddressEmptyCode",
      "type": "error"
    },
    {
      "inputs": [
        {
          "internalType": "address",
          "name": "account",
          "type": "address"
        }
      ],
      "name": "AddressInsufficientBalance",
      "type": "error"
    },
    {
      "inputs": [],
      "name": "FailedInnerCall",
      "type": "error"
    },
    {
      "inputs": [],
      "name": "ReentrancyGuardReentrantCall",
      "type": "error"
    },
    {
      "inputs": [
        {
          "internalType": "address",
          "name": "token",
          "type": "address"
        }
      ],
      "name": "SafeERC20FailedOperation",
      "type": "error"
    },
    {
      "anonymous": false,
      "inputs": [
        {
          "indexed": false,
          "internalType": "uint256",
          "name": "feeCollected",
          "type": "uint256"
        },
        {
          "indexed": true,
          "internalType": "address",
          "name": "token",
          "type": "address"
        }
      ],
      "name": "FeeCollected",
      "type": "event"
    },
    {
      "anonymous": false,
      "inputs": [
        {
          "indexed": true,
          "internalType": "address",
          "name": "newManager",
          "type": "address"
        }
      ],
      "name": "NewFeeManager",
      "type": "event"
    },
    {
      "anonymous": false,
      "inputs": [
        {
          "indexed": false,
          "internalType": "uint8",
          "name": "newTransactionFee",
          "type": "uint8"
        }
      ],
      "name": "NewTransactionFee",
      "type": "event"
    },
    {
      "inputs": [
        {
          "internalType": "uint256",
          "name": "depositAmount",
          "type": "uint256"
        },
        {
          "internalType": "address",
          "name": "tokenAddress",
          "type": "address"
        }
      ],
      "name": "collectFee",
      "outputs": [],
      "stateMutability": "nonpayable",
      "type": "function"
    },
    {
      "inputs": [],
      "name": "getFeeManager",
      "outputs": [
        {
          "internalType": "address",
          "name": "",
          "type": "address"
        }
      ],
      "stateMutability": "view",
      "type": "function"
    },
    {
      "inputs": [],
      "name": "getProtocolManager",
      "outputs": [
        {
          "internalType": "address",
          "name": "",
          "type": "address"
        }
      ],
      "stateMutability": "view",
      "type": "function"
    },
    {
      "inputs": [],
      "name": "getTransactionFee",
      "outputs": [
        {
          "internalType": "uint256",
          "name": "",
          "type": "uint256"
        }
      ],
      "stateMutability": "view",
      "type": "function"
    },
    {
      "inputs": [
        {
          "internalType": "uint256",
          "name": "deposit",
          "type": "uint256"
        }
      ],
      "name": "mustHaveBalance",
      "outputs": [
        {
          "internalType": "uint256",
          "name": "",
          "type": "uint256"
        }
      ],
      "stateMutability": "view",
      "type": "function"
    },
    {
      "inputs": [
        {
          "internalType": "address",
          "name": "",
          "type": "address"
        }
      ],
      "name": "s_protocolBalanceByToken",
      "outputs": [
        {
          "internalType": "uint256",
          "name": "",
          "type": "uint256"
        }
      ],
      "stateMutability": "view",
      "type": "function"
    },
    {
      "inputs": [
        {
          "internalType": "address",
          "name": "_newManager",
          "type": "address"
        }
      ],
      "name": "setNewFeeManager",
      "outputs": [],
      "stateMutability": "nonpayable",
      "type": "function"
    },
    {
      "inputs": [
        {
          "internalType": "uint8",
          "name": "_newTransactionFee",
          "type": "uint8"
        }
      ],
      "name": "setNewTransactionFee",
      "outputs": [],
      "stateMutability": "nonpayable",
      "type": "function"
    },
    {
      "inputs": [
        {
          "internalType": "address",
          "name": "tokenToWithdraw",
          "type": "address"
        }
      ],
      "name": "withdrawFees",
      "outputs": [],
      "stateMutability": "nonpayable",
      "type": "function"
    }
  ],
  "transactionHash": "0xcdc4455ec9beb4e76f81871877d587d2c2cbd2a58a6e75eabfb894c35b751a68",
  "args": [
    2,
    "0x70997970C51812dc3A010C7d01b50e0d17dc79C8",
    "0xc96D9C5DAcBcACc47728E2494C0F83eA03a36507",
    "0xf33C53c7e37115220dCFA19ABFddAD19f06643ff"
  ],
  "numDeployments": 1,
  "solcInputHash": "19f9bdc3b47ef20c1cafb3c32355c921",
  "bytecode": "0x60c060405234801561001057600080fd5b50604051610b82380380610b8283398101604081905261002f9161015f565b60016000556001600160a01b03831661009d5760405162461bcd60e51b815260206004820152602560248201527f4665654d616e616765723a20496e76616c6964206d616e6e6167657273206164604482015264647265737360d81b60648201526084015b60405180910390fd5b8360ff166000036100f05760405162461bcd60e51b815260206004820152601760248201527f4665654d616e616765723a20496e76616c6964206665650000000000000000006044820152606401610094565b600180546001600160a01b039485166001600160a01b031990911681179091556002805460ff909616600160a01b026001600160a81b03199096169091179490941790935581166080521660a0526101bb565b80516001600160a01b038116811461015a57600080fd5b919050565b6000806000806080858703121561017557600080fd5b845160ff8116811461018657600080fd5b935061019460208601610143565b92506101a260408601610143565b91506101b060608601610143565b905092959194509250565b60805160a0516109a86101da60003960005050600050506109a86000f3fe608060405234801561001057600080fd5b50600436106100935760003560e01c80637ff7b0d2116100665780637ff7b0d21461011857806385d791021461012b578063c4f367341461013d578063da0e591014610150578063f2d638261461016357600080fd5b8063164e68de14610098578063167976be146100ad57806361e8348b146100d75780636ecc7b4814610105575b600080fd5b6100ab6100a63660046107f3565b610174565b005b6001546001600160a01b03165b6040516001600160a01b0390911681526020015b60405180910390f35b6100f76100e53660046107f3565b60036020526000908152604090205481565b6040519081526020016100ce565b6100ab6101133660046107f3565b610265565b6100ab61012636600461080e565b61039b565b600254600160a01b900460ff166100f7565b6100ab61014b36600461083a565b610454565b6100f761015e36600461085d565b610534565b6002546001600160a01b03166100ba565b6002546001600160a01b031633146101a75760405162461bcd60e51b815260040161019e90610876565b60405180910390fd5b6101af61056e565b6001600160a01b0381166000908152600360205260409020546102245760405162461bcd60e51b815260206004820152602760248201527f4665654d616e616765723a205a65726f2062616c616e636520666f722074686960448201526639903a37b5b2b760c91b606482015260840161019e565b6001600160a01b0380821660008181526003602052604081208054919055600254909284926102569290911684610598565b50506102626001600055565b50565b6001546001600160a01b031633146102d85760405162461bcd60e51b815260206004820152603060248201527f4665654d616e616765723a204f6e6c79207468652070726f746f636f6c206d6160448201526f1b9859d95c881a5cc8185b1b1bddd95960821b606482015260840161019e565b6001600160a01b038116158015906102f957506001600160a01b0381163014155b6103515760405162461bcd60e51b815260206004820152602360248201527f4665654d616e616765723a20496e76616c6964206d616e61676572206164647260448201526265737360e81b606482015260840161019e565b600280546001600160a01b0319166001600160a01b0383169081179091556040517f772ddcfc9a0f3b1401c0f60000a81999005d9d593b71bb67707c5f326eb7c94d90600090a250565b6002546000906064906103b890600160a01b900460ff16856108d5565b6103c291906108ec565b6001600160a01b0383166000908152600360205260408120805492935083929091906103ef90849061090e565b9091555082905061040b6001600160a01b0382163330856105fc565b826001600160a01b03167ff10cda68996dfb656d49ab0db3c62cc5f0849710633671a337171c3ad92551868360405161044691815260200190565b60405180910390a250505050565b6002546001600160a01b0316331461047e5760405162461bcd60e51b815260040161019e90610876565b60ff811615801590610494575060648160ff1611155b6104e05760405162461bcd60e51b815260206004820152601760248201527f4665654d616e616765723a20496e76616c696420666565000000000000000000604482015260640161019e565b6002805460ff60a01b1916600160a01b60ff8416908102919091179091556040519081527f2e987cc666d374ad58560cbe028ec20c176cd2613b8d4286050a205b61b639849060200160405180910390a150565b600254600090819060649061055390600160a01b900460ff16856108d5565b61055d91906108ec565b610567908461090e565b9392505050565b60026000540361059157604051633ee5aeb560e01b815260040160405180910390fd5b6002600055565b6040516001600160a01b038381166024830152604482018390526105f791859182169063a9059cbb906064015b604051602081830303815290604052915060e01b6020820180516001600160e01b03838183161783525050505061063b565b505050565b6040516001600160a01b0384811660248301528381166044830152606482018390526106359186918216906323b872dd906084016105c5565b50505050565b60006106506001600160a01b0384168361069e565b905080516000141580156106755750808060200190518101906106739190610921565b155b156105f757604051635274afe760e01b81526001600160a01b038416600482015260240161019e565b60606106ac838360006106b5565b90505b92915050565b6060814710156106da5760405163cd78605960e01b815230600482015260240161019e565b600080856001600160a01b031684866040516106f69190610943565b60006040518083038185875af1925050503d8060008114610733576040519150601f19603f3d011682016040523d82523d6000602084013e610738565b606091505b5091509150610748868383610752565b9695505050505050565b60608261076757610762826107ae565b610567565b815115801561077e57506001600160a01b0384163b155b156107a757604051639996b31560e01b81526001600160a01b038516600482015260240161019e565b5080610567565b8051156107be5780518082602001fd5b604051630a12f52160e11b815260040160405180910390fd5b80356001600160a01b03811681146107ee57600080fd5b919050565b60006020828403121561080557600080fd5b6106ac826107d7565b6000806040838503121561082157600080fd5b82359150610831602084016107d7565b90509250929050565b60006020828403121561084c57600080fd5b813560ff8116811461056757600080fd5b60006020828403121561086f57600080fd5b5035919050565b60208082526029908201527f4665654d616e616765723a204f6e6c792074686520666565206d616e616765726040820152681cc8185b1b1bddd95960ba1b606082015260800190565b634e487b7160e01b600052601160045260246000fd5b80820281158282048414176106af576106af6108bf565b60008261090957634e487b7160e01b600052601260045260246000fd5b500490565b808201808211156106af576106af6108bf565b60006020828403121561093357600080fd5b8151801515811461056757600080fd5b6000825160005b81811015610964576020818601810151858301520161094a565b50600092019182525091905056fea264697066735822122029841aaa1613d59c8301c3efccdb1b95c3ad28858b30933b5600f5bd3e9e9feb64736f6c63430008140033",
  "devdoc": {
    "errors": {
      "AddressEmptyCode(address)": [
        {
          "details": "There's no code at `target` (it is not a contract)."
        }
      ],
      "AddressInsufficientBalance(address)": [
        {
          "details": "The ETH balance of the account is not enough to perform the operation."
        }
      ],
      "FailedInnerCall()": [
        {
          "details": "A call to an address target failed. The target may have reverted."
        }
      ],
      "ReentrancyGuardReentrantCall()": [
        {
          "details": "Unauthorized reentrant call."
        }
      ],
      "SafeERC20FailedOperation(address)": [
        {
          "details": "An operation with an ERC20 token failed."
        }
      ]
    },
    "kind": "dev",
    "methods": {
      "collectFee(uint256,address)": {
        "details": "No need to check depositAmount because the amount is require to be bigger than zero when you create a stream",
        "params": {
          "depositAmount": "the amount of fee collected",
          "tokenAddress": "the  token address"
        }
      },
      "constructor": {
        "params": {
          "_USDC": "USDC token address",
          "_USDT": "USDT token address",
          "_fee": "the transaction fee",
          "_protocolManager": "the address of the Protocol Manager"
        }
      },
      "setNewFeeManager(address)": {
        "params": {
          "_newManager": "the new manager"
        }
      },
      "setNewTransactionFee(uint8)": {
        "params": {
          "_newTransactionFee": "the new fee"
        }
      },
      "withdrawFees(address)": {
        "details": "It fails if there is no balance in the token",
        "params": {
          "tokenToWithdraw": "The token itself"
        }
      }
    },
    "version": 1
  },
  "userdoc": {
    "kind": "user",
    "methods": {
      "collectFee(uint256,address)": {
        "notice": "Called when a stream or instant payment is created"
      },
      "setNewFeeManager(address)": {
        "notice": "a function to set new managers to control the fees"
      },
      "setNewTransactionFee(uint8)": {
        "notice": "a function to set new transaction fees"
      },
      "withdrawFees(address)": {
        "notice": "A method to withdraw balance from only one token"
      }
    },
    "version": 1
  },
  "storageLayout": {
    "storage": [
      {
        "astId": 1375,
        "contract": "contracts/utils/FeeManager.sol:FeeManager",
        "label": "_status",
        "offset": 0,
        "slot": "0",
        "type": "t_uint256"
      },
      {
        "astId": 2826,
        "contract": "contracts/utils/FeeManager.sol:FeeManager",
        "label": "s_protocolManager",
        "offset": 0,
        "slot": "1",
        "type": "t_address"
      },
      {
        "astId": 2828,
        "contract": "contracts/utils/FeeManager.sol:FeeManager",
        "label": "s_feeManager",
        "offset": 0,
        "slot": "2",
        "type": "t_address"
      },
      {
        "astId": 2830,
        "contract": "contracts/utils/FeeManager.sol:FeeManager",
        "label": "s_transactionFee",
        "offset": 20,
        "slot": "2",
        "type": "t_uint8"
      },
      {
        "astId": 2838,
        "contract": "contracts/utils/FeeManager.sol:FeeManager",
        "label": "s_protocolBalanceByToken",
        "offset": 0,
        "slot": "3",
        "type": "t_mapping(t_address,t_uint256)"
      }
    ],
    "types": {
      "t_address": {
        "encoding": "inplace",
        "label": "address",
        "numberOfBytes": "20"
      },
      "t_mapping(t_address,t_uint256)": {
        "encoding": "mapping",
        "key": "t_address",
        "label": "mapping(address => uint256)",
        "numberOfBytes": "32",
        "value": "t_uint256"
      },
      "t_uint256": {
        "encoding": "inplace",
        "label": "uint256",
        "numberOfBytes": "32"
      },
      "t_uint8": {
        "encoding": "inplace",
        "label": "uint8",
        "numberOfBytes": "1"
      }
    }
  }
}