{
  "address": "0x0373771b0a8A53dEA04b8A7F33763fc73663440A",
  "abi": [
    {
      "inputs": [
        {
          "internalType": "address",
          "name": "_feeManager",
          "type": "address"
        },
        {
          "internalType": "address",
          "name": "_protocolManager",
          "type": "address"
        },
        {
          "internalType": "address",
          "name": "_USDC",
          "type": "address"
        },
        {
          "internalType": "address",
          "name": "_USDT",
          "type": "address"
        }
      ],
      "stateMutability": "nonpayable",
      "type": "constructor"
    },
    {
      "inputs": [
        {
          "internalType": "address",
          "name": "target",
          "type": "address"
        }
      ],
      "name": "AddressEmptyCode",
      "type": "error"
    },
    {
      "inputs": [
        {
          "internalType": "address",
          "name": "account",
          "type": "address"
        }
      ],
      "name": "AddressInsufficientBalance",
      "type": "error"
    },
    {
      "inputs": [],
      "name": "FailedInnerCall",
      "type": "error"
    },
    {
      "inputs": [],
      "name": "ReentrancyGuardReentrantCall",
      "type": "error"
    },
    {
      "inputs": [
        {
          "internalType": "address",
          "name": "spender",
          "type": "address"
        },
        {
          "internalType": "uint256",
          "name": "currentAllowance",
          "type": "uint256"
        },
        {
          "internalType": "uint256",
          "name": "requestedDecrease",
          "type": "uint256"
        }
      ],
      "name": "SafeERC20FailedDecreaseAllowance",
      "type": "error"
    },
    {
      "inputs": [
        {
          "internalType": "address",
          "name": "token",
          "type": "address"
        }
      ],
      "name": "SafeERC20FailedOperation",
      "type": "error"
    },
    {
      "anonymous": false,
      "inputs": [
        {
          "indexed": true,
          "internalType": "uint256",
          "name": "streamID",
          "type": "uint256"
        },
        {
          "indexed": true,
          "internalType": "address",
          "name": "owner",
          "type": "address"
        },
        {
          "indexed": true,
          "internalType": "address",
          "name": "beneficiary",
          "type": "address"
        },
        {
          "indexed": false,
          "internalType": "uint256",
          "name": "ownerRemainingBalance",
          "type": "uint256"
        },
        {
          "indexed": false,
          "internalType": "uint256",
          "name": "beneficiaryRemainingBalance",
          "type": "uint256"
        }
      ],
      "name": "CancelStream",
      "type": "event"
    },
    {
      "anonymous": false,
      "inputs": [
        {
          "indexed": true,
          "internalType": "uint256",
          "name": "streamID",
          "type": "uint256"
        }
      ],
      "name": "Completed",
      "type": "event"
    },
    {
      "anonymous": false,
      "inputs": [
        {
          "indexed": true,
          "internalType": "uint256",
          "name": "streamID",
          "type": "uint256"
        },
        {
          "indexed": true,
          "internalType": "address",
          "name": "owner",
          "type": "address"
        },
        {
          "indexed": true,
          "internalType": "address",
          "name": "beneficiary",
          "type": "address"
        },
        {
          "indexed": false,
          "internalType": "uint256",
          "name": "depositedAmount",
          "type": "uint256"
        },
        {
          "indexed": false,
          "internalType": "address",
          "name": "token",
          "type": "address"
        },
        {
          "indexed": false,
          "internalType": "uint256",
          "name": "startTime",
          "type": "uint256"
        },
        {
          "indexed": false,
          "internalType": "uint256",
          "name": "stopTime",
          "type": "uint256"
        },
        {
          "indexed": false,
          "internalType": "enum FundUtils.StreamStatus",
          "name": "status",
          "type": "uint8"
        }
      ],
      "name": "NewStream",
      "type": "event"
    },
    {
      "anonymous": false,
      "inputs": [
        {
          "indexed": true,
          "internalType": "uint256",
          "name": "streamID",
          "type": "uint256"
        },
        {
          "indexed": true,
          "internalType": "address",
          "name": "owner",
          "type": "address"
        },
        {
          "indexed": true,
          "internalType": "address",
          "name": "beneficiary",
          "type": "address"
        }
      ],
      "name": "PauseStream",
      "type": "event"
    },
    {
      "anonymous": false,
      "inputs": [
        {
          "indexed": true,
          "internalType": "uint256",
          "name": "streamID",
          "type": "uint256"
        },
        {
          "indexed": true,
          "internalType": "address",
          "name": "owner",
          "type": "address"
        },
        {
          "indexed": true,
          "internalType": "address",
          "name": "beneficiary",
          "type": "address"
        },
        {
          "indexed": false,
          "internalType": "bool",
          "name": "paid",
          "type": "bool"
        }
      ],
      "name": "ResumeStream",
      "type": "event"
    },
    {
      "anonymous": false,
      "inputs": [
        {
          "indexed": false,
          "internalType": "uint256",
          "name": "deposit",
          "type": "uint256"
        },
        {
          "indexed": true,
          "internalType": "address",
          "name": "token",
          "type": "address"
        },
        {
          "indexed": true,
          "internalType": "address",
          "name": "user",
          "type": "address"
        }
      ],
      "name": "WalletDeposit",
      "type": "event"
    },
    {
      "anonymous": false,
      "inputs": [
        {
          "indexed": false,
          "internalType": "uint256",
          "name": "amount",
          "type": "uint256"
        },
        {
          "indexed": true,
          "internalType": "address",
          "name": "token",
          "type": "address"
        },
        {
          "indexed": true,
          "internalType": "address",
          "name": "user",
          "type": "address"
        }
      ],
      "name": "WalletWithdraw",
      "type": "event"
    },
    {
      "anonymous": false,
      "inputs": [
        {
          "indexed": true,
          "internalType": "uint256",
          "name": "streamID",
          "type": "uint256"
        },
        {
          "indexed": true,
          "internalType": "address",
          "name": "owner",
          "type": "address"
        },
        {
          "indexed": true,
          "internalType": "address",
          "name": "beneficiary",
          "type": "address"
        },
        {
          "indexed": false,
          "internalType": "address",
          "name": "recipient",
          "type": "address"
        },
        {
          "indexed": false,
          "internalType": "uint256",
          "name": "amount",
          "type": "uint256"
        }
      ],
      "name": "Withdraw",
      "type": "event"
    },
    {
      "inputs": [
        {
          "internalType": "uint256",
          "name": "toDeposit",
          "type": "uint256"
        }
      ],
      "name": "amountNeeded",
      "outputs": [
        {
          "internalType": "uint256",
          "name": "",
          "type": "uint256"
        }
      ],
      "stateMutability": "view",
      "type": "function"
    },
    {
      "inputs": [
        {
          "internalType": "uint256",
          "name": "id",
          "type": "uint256"
        }
      ],
      "name": "balanceOfStreamBeneficiary",
      "outputs": [
        {
          "internalType": "uint256",
          "name": "balance",
          "type": "uint256"
        }
      ],
      "stateMutability": "view",
      "type": "function"
    },
    {
      "inputs": [
        {
          "internalType": "uint256",
          "name": "id",
          "type": "uint256"
        }
      ],
      "name": "balanceOfStreamOwner",
      "outputs": [
        {
          "internalType": "uint256",
          "name": "balance",
          "type": "uint256"
        }
      ],
      "stateMutability": "view",
      "type": "function"
    },
    {
      "inputs": [
        {
          "internalType": "uint256",
          "name": "id",
          "type": "uint256"
        }
      ],
      "name": "cancelStream",
      "outputs": [],
      "stateMutability": "nonpayable",
      "type": "function"
    },
    {
      "inputs": [
        {
          "internalType": "uint256",
          "name": "deposit",
          "type": "uint256"
        },
        {
          "internalType": "address",
          "name": "tokenAddress",
          "type": "address"
        }
      ],
      "name": "depositOnWallet",
      "outputs": [
        {
          "internalType": "uint256",
          "name": "",
          "type": "uint256"
        }
      ],
      "stateMutability": "nonpayable",
      "type": "function"
    },
    {
      "inputs": [],
      "name": "feeManager",
      "outputs": [
        {
          "internalType": "contract IFeeManager",
          "name": "",
          "type": "address"
        }
      ],
      "stateMutability": "view",
      "type": "function"
    },
    {
      "inputs": [
        {
          "internalType": "address",
          "name": "beneficiary",
          "type": "address"
        }
      ],
      "name": "getBeneficiaryStreamCount",
      "outputs": [
        {
          "internalType": "uint256",
          "name": "",
          "type": "uint256"
        }
      ],
      "stateMutability": "view",
      "type": "function"
    },
    {
      "inputs": [
        {
          "internalType": "address",
          "name": "owner",
          "type": "address"
        }
      ],
      "name": "getOwnerStreamCount",
      "outputs": [
        {
          "internalType": "uint256",
          "name": "",
          "type": "uint256"
        }
      ],
      "stateMutability": "view",
      "type": "function"
    },
    {
      "inputs": [
        {
          "internalType": "address",
          "name": "beneficiary",
          "type": "address"
        }
      ],
      "name": "getStreamByBeneficiary",
      "outputs": [
        {
          "internalType": "uint256[]",
          "name": "",
          "type": "uint256[]"
        }
      ],
      "stateMutability": "view",
      "type": "function"
    },
    {
      "inputs": [
        {
          "internalType": "uint256",
          "name": "id",
          "type": "uint256"
        }
      ],
      "name": "getStreamById",
      "outputs": [
        {
          "components": [
            {
              "internalType": "uint256",
              "name": "deposit",
              "type": "uint256"
            },
            {
              "internalType": "uint256",
              "name": "balanceLeft",
              "type": "uint256"
            },
            {
              "internalType": "uint256",
              "name": "startTime",
              "type": "uint256"
            },
            {
              "internalType": "uint256",
              "name": "stopTime",
              "type": "uint256"
            },
            {
              "internalType": "address",
              "name": "beneficiary",
              "type": "address"
            },
            {
              "internalType": "address",
              "name": "owner",
              "type": "address"
            },
            {
              "internalType": "address",
              "name": "tokenAddress",
              "type": "address"
            },
            {
              "internalType": "enum FundUtils.StreamStatus",
              "name": "status",
              "type": "uint8"
            }
          ],
          "internalType": "struct FundUtils.StreamData",
          "name": "",
          "type": "tuple"
        }
      ],
      "stateMutability": "view",
      "type": "function"
    },
    {
      "inputs": [
        {
          "internalType": "address",
          "name": "owner",
          "type": "address"
        }
      ],
      "name": "getStreamByOwner",
      "outputs": [
        {
          "internalType": "uint256[]",
          "name": "",
          "type": "uint256[]"
        }
      ],
      "stateMutability": "view",
      "type": "function"
    },
    {
      "inputs": [],
      "name": "getStreamsNumber",
      "outputs": [
        {
          "internalType": "uint256",
          "name": "",
          "type": "uint256"
        }
      ],
      "stateMutability": "view",
      "type": "function"
    },
    {
      "inputs": [],
      "name": "getUsdcAddress",
      "outputs": [
        {
          "internalType": "address",
          "name": "",
          "type": "address"
        }
      ],
      "stateMutability": "view",
      "type": "function"
    },
    {
      "inputs": [],
      "name": "getUsdtAddress",
      "outputs": [
        {
          "internalType": "address",
          "name": "",
          "type": "address"
        }
      ],
      "stateMutability": "view",
      "type": "function"
    },
    {
      "inputs": [
        {
          "internalType": "address",
          "name": "token",
          "type": "address"
        }
      ],
      "name": "getWalletBalance",
      "outputs": [
        {
          "internalType": "uint256",
          "name": "",
          "type": "uint256"
        }
      ],
      "stateMutability": "view",
      "type": "function"
    },
    {
      "inputs": [],
      "name": "i_USDC",
      "outputs": [
        {
          "internalType": "address",
          "name": "",
          "type": "address"
        }
      ],
      "stateMutability": "view",
      "type": "function"
    },
    {
      "inputs": [],
      "name": "i_USDT",
      "outputs": [
        {
          "internalType": "address",
          "name": "",
          "type": "address"
        }
      ],
      "stateMutability": "view",
      "type": "function"
    },
    {
      "inputs": [
        {
          "internalType": "address",
          "name": "beneficiary",
          "type": "address"
        },
        {
          "internalType": "uint256",
          "name": "amountToDeposit",
          "type": "uint256"
        },
        {
          "internalType": "address",
          "name": "tokenAddress",
          "type": "address"
        }
      ],
      "name": "instantPayments",
      "outputs": [],
      "stateMutability": "nonpayable",
      "type": "function"
    },
    {
      "inputs": [
        {
          "internalType": "address[]",
          "name": "beneficiaries",
          "type": "address[]"
        },
        {
          "internalType": "uint256",
          "name": "amountToDeposit",
          "type": "uint256"
        },
        {
          "internalType": "address",
          "name": "tokenAddress",
          "type": "address"
        }
      ],
      "name": "multipleInstantPayments",
      "outputs": [],
      "stateMutability": "nonpayable",
      "type": "function"
    },
    {
      "inputs": [
        {
          "internalType": "address[]",
          "name": "beneficiaries",
          "type": "address[]"
        },
        {
          "internalType": "uint256",
          "name": "amountToDeposit",
          "type": "uint256"
        },
        {
          "internalType": "uint256",
          "name": "start",
          "type": "uint256"
        },
        {
          "internalType": "uint256",
          "name": "stop",
          "type": "uint256"
        },
        {
          "internalType": "address",
          "name": "tokenAddress",
          "type": "address"
        }
      ],
      "name": "multipleNewStream",
      "outputs": [],
      "stateMutability": "nonpayable",
      "type": "function"
    },
    {
      "inputs": [
        {
          "internalType": "address",
          "name": "beneficiary",
          "type": "address"
        },
        {
          "internalType": "uint256",
          "name": "amountToDeposit",
          "type": "uint256"
        },
        {
          "internalType": "uint256",
          "name": "start",
          "type": "uint256"
        },
        {
          "internalType": "uint256",
          "name": "stop",
          "type": "uint256"
        },
        {
          "internalType": "address",
          "name": "tokenAddress",
          "type": "address"
        }
      ],
      "name": "newStream",
      "outputs": [],
      "stateMutability": "nonpayable",
      "type": "function"
    },
    {
      "inputs": [
        {
          "internalType": "uint256",
          "name": "id",
          "type": "uint256"
        }
      ],
      "name": "pause",
      "outputs": [],
      "stateMutability": "nonpayable",
      "type": "function"
    },
    {
      "inputs": [
        {
          "internalType": "uint256",
          "name": "id",
          "type": "uint256"
        },
        {
          "internalType": "bool",
          "name": "paid",
          "type": "bool"
        }
      ],
      "name": "resumeStream",
      "outputs": [],
      "stateMutability": "nonpayable",
      "type": "function"
    },
    {
      "inputs": [
        {
          "internalType": "address",
          "name": "",
          "type": "address"
        },
        {
          "internalType": "address",
          "name": "",
          "type": "address"
        }
      ],
      "name": "s_userBalanceByToken",
      "outputs": [
        {
          "internalType": "uint256",
          "name": "",
          "type": "uint256"
        }
      ],
      "stateMutability": "view",
      "type": "function"
    },
    {
      "inputs": [
        {
          "internalType": "address",
          "name": "newManager",
          "type": "address"
        }
      ],
      "name": "setNewFeeManagerAddress",
      "outputs": [],
      "stateMutability": "nonpayable",
      "type": "function"
    },
    {
      "inputs": [
        {
          "internalType": "uint256",
          "name": "id",
          "type": "uint256"
        }
      ],
      "name": "timePassed",
      "outputs": [
        {
          "internalType": "uint256",
          "name": "time",
          "type": "uint256"
        }
      ],
      "stateMutability": "view",
      "type": "function"
    },
    {
      "inputs": [
        {
          "internalType": "uint256",
          "name": "id",
          "type": "uint256"
        }
      ],
      "name": "withdraw",
      "outputs": [],
      "stateMutability": "nonpayable",
      "type": "function"
    },
    {
      "inputs": [],
      "name": "withdrawAll",
      "outputs": [],
      "stateMutability": "nonpayable",
      "type": "function"
    },
    {
      "inputs": [
        {
          "internalType": "uint256",
          "name": "amount",
          "type": "uint256"
        },
        {
          "internalType": "address",
          "name": "tokenAddress",
          "type": "address"
        }
      ],
      "name": "withdrawFromWallet",
      "outputs": [
        {
          "internalType": "uint256",
          "name": "",
          "type": "uint256"
        }
      ],
      "stateMutability": "nonpayable",
      "type": "function"
    },
    {
      "stateMutability": "payable",
      "type": "receive"
    }
  ],
  "transactionHash": "0xc127b8c2d631ac352de6aad33894def11140bff777ce0ba6fededb78a643fbaa",
  "args": [
    "0x848c0fF71731CE5568e7ae9C4A8cfE0aE12642dc",
    "0x70997970C51812dc3A010C7d01b50e0d17dc79C8",
    "0xc96D9C5DAcBcACc47728E2494C0F83eA03a36507",
    "0xf33C53c7e37115220dCFA19ABFddAD19f06643ff"
  ],
  "numDeployments": 1,
  "solcInputHash": "19f9bdc3b47ef20c1cafb3c32355c921",
  "bytecode": "0x6101006040523480156200001257600080fd5b50604051620033ff380380620033ff8339810160408190526200003591620004c2565b600160008190556001600160a01b03808416608081905281841660a081905260c082905260e05282548287166001600160a01b03199182161790935560028054928816928416831790556003805490931682179092558391839186918891620000a29190600019620000d7565b60035460e051620000c3916001600160a01b039182169116600019620000d7565b5050600060055550620005b0945050505050565b604051636eb1769f60e11b81523060048201526001600160a01b0383811660248301526000919085169063dd62ed3e90604401602060405180830381865afa15801562000128573d6000803e3d6000fd5b505050506040513d601f19601f820116820180604052508101906200014e91906200051f565b905062000168848462000162858562000539565b6200016e565b50505050565b604080516001600160a01b038416602482015260448082018490528251808303909101815260649091019091526020810180516001600160e01b0390811663095ea7b360e01b17909152620001c890859083906200023416565b6200016857604080516001600160a01b038516602482015260006044808301919091528251808303909101815260649091019091526020810180516001600160e01b0390811663095ea7b360e01b1790915262000228918691620002e716565b620001688482620002e7565b6000806000846001600160a01b0316846040516200025391906200055b565b6000604051808303816000865af19150503d806000811462000292576040519150601f19603f3d011682016040523d82523d6000602084013e62000297565b606091505b5091509150818015620002c5575080511580620002c5575080806020019051810190620002c591906200058c565b8015620002dc57506000856001600160a01b03163b115b925050505b92915050565b6000620002fe6001600160a01b038416836200035a565b90508051600014158015620003265750808060200190518101906200032491906200058c565b155b156200035557604051635274afe760e01b81526001600160a01b03841660048201526024015b60405180910390fd5b505050565b60606200036a8383600062000371565b9392505050565b606081471015620003985760405163cd78605960e01b81523060048201526024016200034c565b600080856001600160a01b03168486604051620003b691906200055b565b60006040518083038185875af1925050503d8060008114620003f5576040519150601f19603f3d011682016040523d82523d6000602084013e620003fa565b606091505b5090925090506200040d86838362000417565b9695505050505050565b60608262000430576200042a826200047b565b6200036a565b81511580156200044857506001600160a01b0384163b155b156200047357604051639996b31560e01b81526001600160a01b03851660048201526024016200034c565b50806200036a565b8051156200048c5780518082602001fd5b604051630a12f52160e11b815260040160405180910390fd5b80516001600160a01b0381168114620004bd57600080fd5b919050565b60008060008060808587031215620004d957600080fd5b620004e485620004a5565b9350620004f460208601620004a5565b92506200050460408601620004a5565b91506200051460608601620004a5565b905092959194509250565b6000602082840312156200053257600080fd5b5051919050565b80820180821115620002e157634e487b7160e01b600052601160045260246000fd5b6000825160005b818110156200057e576020818601810151858301520162000562565b506000920191825250919050565b6000602082840312156200059f57600080fd5b815180151581146200036a57600080fd5b60805160a05160c05160e051612ddd62000622600039600081816109cf0152610a660152600081816109940152610a2c0152600081816103060152818161058701528181610f3001526119880152600081816103900152818161051901528181610ef5015261194d0152612ddd6000f3fe6080604052600436106101c65760003560e01c80639db60550116100f7578063d0fb020311610095578063ed8ec19411610064578063ed8ec194146105a9578063f03cc7bd146105ec578063f3a395b11461060c578063fa0f460b1461064257600080fd5b8063d0fb0203146104ea578063dbe0b5b21461050a578063dd7041ef1461053d578063ddb99ee21461057557600080fd5b8063ac458e01116100d1578063ac458e011461046a578063ad5357331461048a578063b74db3fb146104aa578063cfed9199146104ca57600080fd5b80639db60550146103f45780639ea3e3c814610414578063a47810291461044a57600080fd5b80633e59ec51116101645780636db9241b1161013e5780636db9241b1461035e578063804b40961461037e578063853828b6146103b25780638ed031cb146103c757600080fd5b80633e59ec51146102ca5780634b7dd8e6146102f7578063601351961461033e57600080fd5b80632c259fbd116101a05780632c259fbd1461024a5780632e1a7d4d1461026a57806331edc6f71461028a57806339493cdc146102aa57600080fd5b8063136439dd146101d557806316366cda146101f757806328413ead1461022a57600080fd5b366101d057600080fd5b600080fd5b3480156101e157600080fd5b506101f56101f0366004612832565b610657565b005b34801561020357600080fd5b50610217610212366004612832565b610802565b6040519081526020015b60405180910390f35b34801561023657600080fd5b506101f5610245366004612867565b610889565b34801561025657600080fd5b506101f561026536600461293a565b610a94565b34801561027657600080fd5b506101f5610285366004612832565b610ae8565b34801561029657600080fd5b506101f56102a5366004612991565b610dd6565b3480156102b657600080fd5b506101f56102c53660046129e1565b610deb565b3480156102d657600080fd5b506102ea6102e5366004612867565b610e37565b6040516102219190612a40565b34801561030357600080fd5b507f00000000000000000000000000000000000000000000000000000000000000005b6040516001600160a01b039091168152602001610221565b34801561034a57600080fd5b50610217610359366004612a84565b610ea3565b34801561036a57600080fd5b506101f5610379366004612832565b6110c0565b34801561038a57600080fd5b506103267f000000000000000000000000000000000000000000000000000000000000000081565b3480156103be57600080fd5b506101f561136e565b3480156103d357600080fd5b506103e76103e2366004612832565b6114f5565b6040516102219190612ae8565b34801561040057600080fd5b5061021761040f366004612832565b6115e6565b34801561042057600080fd5b5061021761042f366004612867565b6001600160a01b031660009081526007602052604090205490565b34801561045657600080fd5b506101f5610465366004612b68565b6116b4565b34801561047657600080fd5b506101f5610485366004612b98565b61188b565b34801561049657600080fd5b506102ea6104a5366004612867565b611899565b3480156104b657600080fd5b506102176104c5366004612a84565b611903565b3480156104d657600080fd5b506102176104e5366004612832565b611a9f565b3480156104f657600080fd5b50600354610326906001600160a01b031681565b34801561051657600080fd5b507f0000000000000000000000000000000000000000000000000000000000000000610326565b34801561054957600080fd5b50610217610558366004612bcb565b600460209081526000928352604080842090915290825290205481565b34801561058157600080fd5b506103267f000000000000000000000000000000000000000000000000000000000000000081565b3480156105b557600080fd5b506102176105c4366004612867565b3360009081526004602090815260408083206001600160a01b03949094168352929052205490565b3480156105f857600080fd5b50610217610607366004612832565b611b8c565b34801561061857600080fd5b50610217610627366004612867565b6001600160a01b031660009081526008602052604090205490565b34801561064e57600080fd5b50600554610217565b600081815260066020818152604080842081516101008101835281548152600182015493810193909352600281015491830191909152600380820154606084015260048201546001600160a01b0390811660808501526005830154811660a08501529382015493841660c084015285949360e0840191600160a01b90910460ff16908111156106e8576106e8612ab0565b60038111156106f9576106f9612ab0565b8152505090508060a001516001600160a01b0316336001600160a01b03161461073d5760405162461bcd60e51b815260040161073490612bf5565b60405180910390fd5b6000838152600660205260408120906006820154600160a01b900460ff16600381111561076c5761076c612ab0565b146107895760405162461bcd60e51b815260040161073490612c36565b60068101805460ff60a01b1916600160a01b17905560048101546107b79085906001600160a01b0316611cb6565b600481015460058201546040516001600160a01b03928316929091169086907f5d9d98f2b748ac9996283b853e50f8757959dfd0141b5265270f538e172e70a090600090a450505050565b6000808061081384620f4240612c83565b600354604051630da0e59160e41b8152600481018390529192506001600160a01b03169063da0e591090602401602060405180830381865afa15801561085d573d6000803e3d6000fd5b505050506040513d601f19601f820116820180604052508101906108819190612c9a565b949350505050565b6001546001600160a01b031633146108fc5760405162461bcd60e51b815260206004820152603060248201527f4665654d616e616765723a204f6e6c79207468652070726f746f636f6c206d6160448201526f1b9859d95c881a5cc8185b1b1bddd95960821b6064820152608401610734565b6001600160a01b0381161580159061092257506002546001600160a01b03828116911614155b801561093757506001600160a01b0381163314155b6109835760405162461bcd60e51b815260206004820152601f60248201527f57616c6c65743a20496e76616c6964204d616e616765722061646472657373006044820152606401610734565b6003546109be906001600160a01b037f0000000000000000000000000000000000000000000000000000000000000000811691166000611de1565b6003546109f9906001600160a01b037f0000000000000000000000000000000000000000000000000000000000000000811691166000611de1565b600280546001600160a01b03199081166001600160a01b03848116918217909355600380549092168117909155610a55917f00000000000000000000000000000000000000000000000000000000000000001690600019611ea4565b600354610a91906001600160a01b037f000000000000000000000000000000000000000000000000000000000000000081169116600019611ea4565b50565b4260005b8451811015610ae1576000858281518110610ab557610ab5612cb3565b60200260200101519050610acc8186858688611f2e565b50508080610ad990612cc9565b915050610a98565b5050505050565b610af06124b1565b600081815260066020818152604080842081516101008101835281548152600182015493810193909352600281015491830191909152600380820154606084015260048201546001600160a01b0390811660808501526005830154811660a08501529382015493841660c084015285949360e0840191600160a01b90910460ff1690811115610b8157610b81612ab0565b6003811115610b9257610b92612ab0565b81525050905080608001516001600160a01b0316336001600160a01b031614610c0d5760405162461bcd60e51b815260206004820152602760248201527f53747265616d3a204f6e6c792073747265616d2062656e656669636961727920604482015266185b1b1bddd95960ca1b6064820152608401610734565b6000838152600660205260408120906006820154600160a01b900460ff166003811115610c3c57610c3c612ab0565b14610c595760405162461bcd60e51b815260040161073490612c36565b60008042905080836003015411610cbb5760018301805460009182905560068501805460ff60a01b1916600360a01b17905560405190935087917fdfd517ed69f8a0a57d49fe494e4864fac3cfe3585c14c0bfddf39f72463ec3fd91a2610d2c565b610cc486611b8c565b915060008211610d165760405162461bcd60e51b815260206004820152601c60248201527f53747265616d3a204e6f2062616c616e636520617661696c61626c65000000006044820152606401610734565b818360010154610d269190612ce2565b60018401555b6004838101546001600160a01b03908116600090815260209283526040808220600688015490931682529190925281208054849290610d6c908490612cf5565b909155505060048301546005840154604080516001600160a01b0393841680825260208201879052939092169189917f14fb18a6159cb964441ea40f176151c2d2a3db8c8152e81e410e2524288736e491015b60405180910390a45050505050610a916001600055565b610de38585858585611f2e565b505050505050565b60005b8551811015610de3576000868281518110610e0b57610e0b612cb3565b60200260200101519050610e228187878787611f2e565b50508080610e2f90612cc9565b915050610dee565b6001600160a01b038116600090815260076020908152604091829020805483518184028101840190945280845260609392830182828015610e9757602002820191906000526020600020905b815481526020019060010190808311610e83575b50505050509050919050565b6000610ead6124b1565b82600003610ef35760405162461bcd60e51b815260206004820152601360248201527215d85b1b195d0e8816995c9bc8185b5bdd5b9d606a1b6044820152606401610734565b7f00000000000000000000000000000000000000000000000000000000000000006001600160a01b0316826001600160a01b03161480610f6457507f00000000000000000000000000000000000000000000000000000000000000006001600160a01b0316826001600160a01b0316145b610fb05760405162461bcd60e51b815260206004820152601b60248201527f57616c6c65743a204f6e6c7920205553444320616e64205553445400000000006044820152606401610734565b3360009081526004602090815260408083206001600160a01b03861684529091529020548311156110235760405162461bcd60e51b815260206004820152601a60248201527f57616c6c65743a204e6f7420656e6f7567682062616c616e63650000000000006044820152606401610734565b3360009081526004602090815260408083206001600160a01b038616845290915281208054859290611056908490612ce2565b909155508290506110716001600160a01b03821633866124db565b60405184815233906001600160a01b038516907f01aaa55c201cb0eb4845059eb5158ccc9dfeb0f477d3af4a5dd6da300e77603c9060200160405180910390a350506001600055815b92915050565b6110c86124b1565b600081815260066020818152604080842081516101008101835281548152600182015493810193909352600281015491830191909152600380820154606084015260048201546001600160a01b0390811660808501526005830154811660a08501529382015493841660c084015285949360e0840191600160a01b90910460ff169081111561115957611159612ab0565b600381111561116a5761116a612ab0565b8152505090508060a001516001600160a01b0316336001600160a01b0316146111a55760405162461bcd60e51b815260040161073490612bf5565b6000838152600660205260408120906006820154600160a01b900460ff1660038111156111d4576111d4612ab0565b14806111ff575060016006820154600160a01b900460ff1660038111156111fd576111fd612ab0565b145b61121b5760405162461bcd60e51b815260040161073490612c36565b60016006820154600160a01b900460ff16600381111561123d5761123d612ab0565b0361124d5761124d8460006116b4565b6000611258856115e6565b9050600061126586611b8c565b60068401805460ff60a01b1916600160a11b17905560006001850155905080156112cf576004838101546001600160a01b039081166000908152602092835260408082206006880154909316825291909252812080548392906112c9908490612cf5565b90915550505b811561131c5760058301546001600160a01b039081166000908152600460209081526040808320600688015490941683529290529081208054849290611316908490612cf5565b90915550505b6004830154600584015460408051858152602081018590526001600160a01b03938416939092169189917fca3e6079b726e7728802a0537949e2d1c7762304fa641fb06eb56daf2ba8c6b99101610dbf565b6113766124b1565b336000908152600760209081526040808320805482518185028101850190935280835291929091908301828280156113cd57602002820191906000526020600020905b8154815260200190600101908083116113b9575b5050505050905060005b81518110156114e75760008282815181106113f4576113f4612cb3565b60209081029190910181015160008181526006808452604080832081516101008101835281548152600182015496810196909652600281015491860191909152600380820154606087015260048201546001600160a01b0390811660808801526005830154811660a08801529282015492831660c087015293955091939260e0840191600160a01b900460ff169081111561149157611491612ab0565b60038111156114a2576114a2612ab0565b905250905060008160e0015160038111156114bf576114bf612ab0565b036114d2576114d2828260800151611cb6565b505080806114df90612cc9565b9150506113d7565b50506114f36001600055565b565b61153a6040805161010081018252600080825260208201819052918101829052606081018290526080810182905260a0810182905260c081018290529060e082015290565b60008281526006602081815260409283902083516101008101855281548152600182015492810192909252600281015493820193909352600380840154606083015260048401546001600160a01b0390811660808401526005850154811660a08401529284015492831660c083015290929160e0840191600160a01b90910460ff16908111156115cc576115cc612ab0565b60038111156115dd576115dd612ab0565b90525092915050565b600081815260066020818152604080842081516101008101835281548152600182015493810193909352600281015491830191909152600380820154606084015260048201546001600160a01b0390811660808501526005830154811660a08501529382015493841660c0840152849360e0840191600160a01b90910460ff169081111561167657611676612ab0565b600381111561168757611687612ab0565b9052509050600061169784611b8c565b905060008183602001516116ab9190612ce2565b95945050505050565b600082815260066020818152604080842081516101008101835281548152600182015493810193909352600281015491830191909152600380820154606084015260048201546001600160a01b0390811660808501526005830154811660a08501529382015493841660c084015286949360e0840191600160a01b90910460ff169081111561174557611745612ab0565b600381111561175657611756612ab0565b8152505090508060a001516001600160a01b0316336001600160a01b0316146117915760405162461bcd60e51b815260040161073490612bf5565b600084815260066020526040902060016006820154600160a01b900460ff1660038111156117c1576117c1612ab0565b146117de5760405162461bcd60e51b815260040161073490612c36565b836117fc5760058101546117fc9086906001600160a01b0316611cb6565b60036006820154600160a01b900460ff16600381111561181e5761181e612ab0565b14610ae15760068101805460ff60a01b191690556004810154600582015460405186151581526001600160a01b03928316929091169087907f94b914f6fc99ae7b467d566845d15a3eea9ad6ff15972091b1ab9bdc1da60a2f906020015b60405180910390a45050505050565b42610ae18484838086611f2e565b6001600160a01b038116600090815260086020908152604091829020805483518184028101840190945280845260609392830182828015610e975760200282019190600052602060002090815481526020019060010190808311610e835750505050509050919050565b60008260000361194b5760405162461bcd60e51b815260206004820152601360248201527215d85b1b195d0e8816995c9bc8185b5bdd5b9d606a1b6044820152606401610734565b7f00000000000000000000000000000000000000000000000000000000000000006001600160a01b0316826001600160a01b031614806119bc57507f00000000000000000000000000000000000000000000000000000000000000006001600160a01b0316826001600160a01b0316145b611a085760405162461bcd60e51b815260206004820152601a60248201527f57616c6c65743a204f6e6c79205553444320616e6420555344540000000000006044820152606401610734565b3360009081526004602090815260408083206001600160a01b038616845290915281208054859290611a3b908490612cf5565b90915550829050611a576001600160a01b03821633308761253f565b60405184815233906001600160a01b038516907f375bc8be397dcc4a4f240050878666d4ed8b2fdb97e9cd3cacd97dc415ab7a909060200160405180910390a3509192915050565b600081815260066020818152604080842081516101008101835281548152600182015493810193909352600281015491830191909152600380820154606084015260048201546001600160a01b0390811660808501526005830154811660a08501529382015493841660c0840152849360e0840191600160a01b90910460ff1690811115611b2f57611b2f612ab0565b6003811115611b4057611b40612ab0565b905250604081015190915042908111611b5d575060009392505050565b8160600151811015611b785760408201516108819082612ce2565b816040015182606001516108819190612ce2565b600081815260066020818152604080842081516101008101835281548152600182015493810193909352600281015491830191909152600380820154606084015260048201546001600160a01b0390811660808501526005830154811660a08501529382015493841660c0840152849360e0840191600160a01b90910460ff1690811115611c1c57611c1c612ab0565b6003811115611c2d57611c2d612ab0565b90525090506000611c3d84611a9f565b9050600082604001518360600151611c559190612ce2565b90506000818460000151611c699190612d08565b90506000611c778285612c83565b9050846020015185600001511115611cac5760208501518551600091611c9c91612ce2565b9050611ca88183612ce2565b9150505b9695505050505050565b6000828152600660205260408120600381015490919042908110611d255760018301805460009182905560068501805460ff60a01b1916600360a01b17905560405190935086917fdfd517ed69f8a0a57d49fe494e4864fac3cfe3585c14c0bfddf39f72463ec3fd91a2611d46565b611d2e85611b8c565b9150818360010154611d409190612ce2565b60018401555b8115610ae1576001600160a01b038085166000908152600460209081526040808320600688015490941683529290529081208054849290611d88908490612cf5565b909155505060048301546005840154604080516001600160a01b03888116825260208201879052938416939092169188917f14fb18a6159cb964441ea40f176151c2d2a3db8c8152e81e410e2524288736e4910161187c565b604051636eb1769f60e11b81523060048201526001600160a01b0383811660248301526000919085169063dd62ed3e90604401602060405180830381865afa158015611e31573d6000803e3d6000fd5b505050506040513d601f19601f82011682018060405250810190611e559190612c9a565b905081811015611e915760405163e570110f60e01b81526001600160a01b03841660048201526024810182905260448101839052606401610734565b611e9e8484848403612578565b50505050565b604051636eb1769f60e11b81523060048201526001600160a01b0383811660248301526000919085169063dd62ed3e90604401602060405180830381865afa158015611ef4573d6000803e3d6000fd5b505050506040513d601f19601f82011682018060405250810190611f189190612c9a565b9050611e9e8484611f298585612cf5565b612578565b6000611f386124b1565b6001600160a01b03861615801590611f5957506001600160a01b0386163014155b8015611f6e57506001600160a01b0386163314155b611fc65760405162461bcd60e51b815260206004820152602360248201527f53747265616d3a20496e76616c69642062656e6566696369617279206164647260448201526265737360e81b6064820152608401610734565b8460000361200c5760405162461bcd60e51b815260206004820152601360248201527214dd1c99585b4e8816995c9bc8185b5bdd5b9d606a1b6044820152606401610734565b600354604051630da0e59160e41b8152600481018790526000916001600160a01b03169063da0e591090602401602060405180830381865afa158015612056573d6000803e3d6000fd5b505050506040513d601f19601f8201168201806040525081019061207a9190612c9a565b3360009081526004602090815260408083206001600160a01b03881684529091529020549091508111156120f05760405162461bcd60e51b815260206004820152601a60248201527f53747265616d3a204e6f7420656e6f7567682062616c616e63650000000000006044820152606401610734565b600354604051633ffbd86960e11b8152600481018890526001600160a01b03858116602483015290911690637ff7b0d290604401600060405180830381600087803b15801561213e57600080fd5b505af1158015612152573d6000803e3d6000fd5b50429250600091505086158061216757508187105b15612173575080612176565b50855b6005805490600061218683612cc9565b90915550506005546000908152600660205260409020818710156121ec5760405162461bcd60e51b815260206004820152601960248201527f53747265616d3a20496e76616c69642073746f702074696d65000000000000006044820152606401610734565b81870361228c578881556000600182018190556002820184905560038201849055600480830180546001600160a01b038e81166001600160a01b031992831681179093556005860180549092163317909155600685018054918b166001600160a81b03199092168217600360a01b179055908352602091825260408084209184529152812080548b9290612281908490612cf5565b9091555061235b9050565b60006122988389612ce2565b9050808a116122f85760405162461bcd60e51b815260206004820152602660248201527f53747265616d3a204465706f73697420736d616c6c6572207468616e2074696d60448201526519481b19599d60d21b6064820152608401610734565b508881556001810189905560028101829055600381018790556004810180546001600160a01b038c81166001600160a01b031992831617909255600583018054909116331790556006820180549188166001600160a81b03199092169190911790555b3360009081526004602090815260408083206001600160a01b038a1684529091528120805486929061238e908490612ce2565b92505081905550600760008b6001600160a01b03166001600160a01b03168152602001908152602001600020600554908060018154018082558091505060019003906000526020600020016000909190919091505560086000336001600160a01b03166001600160a01b03168152602001908152602001600020600554908060018154018082558091505060019003906000526020600020016000909190919091505560008160060160149054906101000a900460ff1690508a6001600160a01b0316336001600160a01b03166005547fd4f5f95572ac933ff839819bc763664528bf9cb6302b2d0e05e1462d20b2a5be8d8b888e88604051612495959493929190612d2a565b60405180910390a4600554955050505050506116ab6001600055565b6002600054036124d457604051633ee5aeb560e01b815260040160405180910390fd5b6002600055565b6040516001600160a01b0383811660248301526044820183905261253a91859182169063a9059cbb906064015b604051602081830303815290604052915060e01b6020820180516001600160e01b038381831617835250505050612604565b505050565b6040516001600160a01b038481166024830152838116604483015260648201839052611e9e9186918216906323b872dd90608401612508565b604080516001600160a01b038416602482015260448082018490528251808303909101815260649091019091526020810180516001600160e01b031663095ea7b360e01b1790526125c98482612667565b611e9e576040516001600160a01b038481166024830152600060448301526125fe91869182169063095ea7b390606401612508565b611e9e84825b60006126196001600160a01b0384168361270a565b9050805160001415801561263e57508080602001905181019061263c9190612d5b565b155b1561253a57604051635274afe760e01b81526001600160a01b0384166004820152602401610734565b6000806000846001600160a01b0316846040516126849190612d78565b6000604051808303816000865af19150503d80600081146126c1576040519150601f19603f3d011682016040523d82523d6000602084013e6126c6565b606091505b50915091508180156126f05750805115806126f05750808060200190518101906126f09190612d5b565b80156116ab5750505050506001600160a01b03163b151590565b60606127188383600061271f565b9392505050565b6060814710156127445760405163cd78605960e01b8152306004820152602401610734565b600080856001600160a01b031684866040516127609190612d78565b60006040518083038185875af1925050503d806000811461279d576040519150601f19603f3d011682016040523d82523d6000602084013e6127a2565b606091505b5091509150611cac8683836060826127c2576127bd82612809565b612718565b81511580156127d957506001600160a01b0384163b155b1561280257604051639996b31560e01b81526001600160a01b0385166004820152602401610734565b5080612718565b8051156128195780518082602001fd5b604051630a12f52160e11b815260040160405180910390fd5b60006020828403121561284457600080fd5b5035919050565b80356001600160a01b038116811461286257600080fd5b919050565b60006020828403121561287957600080fd5b6127188261284b565b634e487b7160e01b600052604160045260246000fd5b600082601f8301126128a957600080fd5b8135602067ffffffffffffffff808311156128c6576128c6612882565b8260051b604051601f19603f830116810181811084821117156128eb576128eb612882565b60405293845285810183019383810192508785111561290957600080fd5b83870191505b8482101561292f576129208261284b565b8352918301919083019061290f565b979650505050505050565b60008060006060848603121561294f57600080fd5b833567ffffffffffffffff81111561296657600080fd5b61297286828701612898565b935050602084013591506129886040850161284b565b90509250925092565b600080600080600060a086880312156129a957600080fd5b6129b28661284b565b94506020860135935060408601359250606086013591506129d56080870161284b565b90509295509295909350565b600080600080600060a086880312156129f957600080fd5b853567ffffffffffffffff811115612a1057600080fd5b612a1c88828901612898565b9550506020860135935060408601359250606086013591506129d56080870161284b565b6020808252825182820181905260009190848201906040850190845b81811015612a7857835183529284019291840191600101612a5c565b50909695505050505050565b60008060408385031215612a9757600080fd5b82359150612aa76020840161284b565b90509250929050565b634e487b7160e01b600052602160045260246000fd5b60048110612ae457634e487b7160e01b600052602160045260246000fd5b9052565b60006101008201905082518252602083015160208301526040830151604083015260608301516060830152608083015160018060a01b0380821660808501528060a08601511660a08501528060c08601511660c0850152505060e0830151612b5360e0840182612ac6565b5092915050565b8015158114610a9157600080fd5b60008060408385031215612b7b57600080fd5b823591506020830135612b8d81612b5a565b809150509250929050565b600080600060608486031215612bad57600080fd5b612bb68461284b565b9250602084013591506129886040850161284b565b60008060408385031215612bde57600080fd5b612be78361284b565b9150612aa76020840161284b565b60208082526021908201527f53747265616d3a204f6e6c792073747265616d206f776e657220616c6c6f77656040820152601960fa1b606082015260800190565b6020808252601f908201527f53747265616d3a2053747265616d20696e636f72726563742073746174757300604082015260600190565b634e487b7160e01b600052601160045260246000fd5b80820281158282048414176110ba576110ba612c6d565b600060208284031215612cac57600080fd5b5051919050565b634e487b7160e01b600052603260045260246000fd5b600060018201612cdb57612cdb612c6d565b5060010190565b818103818111156110ba576110ba612c6d565b808201808211156110ba576110ba612c6d565b600082612d2557634e487b7160e01b600052601260045260246000fd5b500490565b8581526001600160a01b0385166020820152604081018490526060810183905260a08101611cac6080830184612ac6565b600060208284031215612d6d57600080fd5b815161271881612b5a565b6000825160005b81811015612d995760208186018101518583015201612d7f565b50600092019182525091905056fea26469706673582212200f8eff82eddbdf40e844035a031c546f935ac9c8894287d6cdf07ee177fdc3db64736f6c63430008140033",
  "devdoc": {
    "errors": {
      "AddressEmptyCode(address)": [
        {
          "details": "There's no code at `target` (it is not a contract)."
        }
      ],
      "AddressInsufficientBalance(address)": [
        {
          "details": "The ETH balance of the account is not enough to perform the operation."
        }
      ],
      "FailedInnerCall()": [
        {
          "details": "A call to an address target failed. The target may have reverted."
        }
      ],
      "ReentrancyGuardReentrantCall()": [
        {
          "details": "Unauthorized reentrant call."
        }
      ],
      "SafeERC20FailedDecreaseAllowance(address,uint256,uint256)": [
        {
          "details": "Indicates a failed `decreaseAllowance` request."
        }
      ],
      "SafeERC20FailedOperation(address)": [
        {
          "details": "An operation with an ERC20 token failed."
        }
      ]
    },
    "kind": "dev",
    "methods": {
      "balanceOfStreamBeneficiary(uint256)": {
        "returns": {
          "balance": "of beneficiary"
        }
      },
      "balanceOfStreamOwner(uint256)": {
        "params": {
          "id": "Streams id"
        },
        "returns": {
          "balance": "of owner"
        }
      },
      "cancelStream(uint256)": {
        "details": "If the beneficiary has some unclaimed balance, it will be transfer to him The rest of the balance on the stream will be transfer to the ownerIt fails if the stream doesnt existIt fails if the caller is not the ownerIt fails if the transfer fails",
        "params": {
          "id": "Streams id"
        }
      },
      "depositOnWallet(uint256,address)": {
        "details": "It fails if the token is not USDC or USDTIt fails if the deposit is \"0\"",
        "params": {
          "deposit": "The amount to fund the wallet",
          "tokenAddress": "The token to fund"
        }
      },
      "getBeneficiaryStreamCount(address)": {
        "returns": {
          "_0": "StreamData object"
        }
      },
      "getOwnerStreamCount(address)": {
        "returns": {
          "_0": "StreamData object"
        }
      },
      "getStreamByBeneficiary(address)": {
        "returns": {
          "_0": "StreamData object"
        }
      },
      "getStreamById(uint256)": {
        "returns": {
          "_0": "StreamData object"
        }
      },
      "getStreamByOwner(address)": {
        "returns": {
          "_0": "StreamData object"
        }
      },
      "getWalletBalance(address)": {
        "params": {
          "token": "The token to know users balance"
        }
      },
      "instantPayments(address,uint256,address)": {
        "params": {
          "amountToDeposit": "How much to deposit",
          "beneficiary": "The one to receive the payment",
          "tokenAddress": "Tokens address deposited"
        }
      },
      "multipleInstantPayments(address[],uint256,address)": {
        "params": {
          "amountToDeposit": "How much to deposit",
          "beneficiaries": "Array of the ones to receive the payments",
          "tokenAddress": "Tokens address deposited"
        }
      },
      "multipleNewStream(address[],uint256,uint256,uint256,address)": {
        "params": {
          "amountToDeposit": "How much to deposit",
          "beneficiaries": "The one to receive the stream",
          "start": "When the stream starts",
          "stop": "When the stream ends",
          "tokenAddress": "Tokens address deposited"
        }
      },
      "newStream(address,uint256,uint256,uint256,address)": {
        "params": {
          "amountToDeposit": "How much to deposit",
          "beneficiary": "The one to receive the stream",
          "start": "When the stream starts",
          "stop": "When the stream ends",
          "tokenAddress": "Tokens address deposited"
        }
      },
      "pause(uint256)": {
        "details": "It fails if the caller is not the ownerIt fails if the stream is not active",
        "params": {
          "id": "Streams id"
        }
      },
      "resumeStream(uint256,bool)": {
        "details": "It fails if the caller is not the ownerIt fails if the stream is not active",
        "params": {
          "id": "Streams id",
          "paid": "True if it is a paid pause, false if not"
        }
      },
      "timePassed(uint256)": {
        "returns": {
          "time": "passed"
        }
      },
      "withdraw(uint256)": {
        "details": "It fails if the stream doesnt existIt fails if the caller is not the beneficiaryIt fails if the amount is bigger than the balance leftIt fails if the transfer fails",
        "params": {
          "id": "Streams id"
        }
      },
      "withdrawAll()": {
        "details": "It fails if the stream doesnt existIt fails if the caller is not the beneficiaryIt fails if the amount is bigger than the balance leftIt fails if the transfer fails"
      },
      "withdrawFromWallet(uint256,address)": {
        "details": "It fails if the token is not USDC or USDTIt fails if the amount is \"0\"It fails if the user does not have enough balance",
        "params": {
          "amount": "The amount to withdraw from wallet",
          "tokenAddress": "The token to withdrw"
        }
      }
    },
    "version": 1
  },
  "userdoc": {
    "kind": "user",
    "methods": {
      "balanceOfStreamBeneficiary(uint256)": {
        "notice": "Calculate the unclaimed balance of a streams beneficiary by giving the id"
      },
      "balanceOfStreamOwner(uint256)": {
        "notice": "Calculate the balance of the streams owner by giving the id"
      },
      "cancelStream(uint256)": {
        "notice": "Cancel an existing stream"
      },
      "depositOnWallet(uint256,address)": {
        "notice": "A method to fund the wallet"
      },
      "getBeneficiaryStreamCount(address)": {
        "notice": "Get a beneficiarys total Streams"
      },
      "getOwnerStreamCount(address)": {
        "notice": "Get a owners total Streams"
      },
      "getStreamByBeneficiary(address)": {
        "notice": "Get all beneficiary streams"
      },
      "getStreamById(uint256)": {
        "notice": "Get the Stream by giving the id"
      },
      "getStreamByOwner(address)": {
        "notice": "Get all owner streams"
      },
      "getStreamsNumber()": {
        "notice": "Get the total number of streams"
      },
      "getWalletBalance(address)": {
        "notice": "A method to know users balances"
      },
      "instantPayments(address,uint256,address)": {
        "notice": "Unique and instant payments"
      },
      "multipleInstantPayments(address[],uint256,address)": {
        "notice": "Multiple instant payments"
      },
      "multipleNewStream(address[],uint256,uint256,uint256,address)": {
        "notice": "Create multiple new streams"
      },
      "newStream(address,uint256,uint256,uint256,address)": {
        "notice": "Create new streams"
      },
      "pause(uint256)": {
        "notice": "Pause an active stream"
      },
      "resumeStream(uint256,bool)": {
        "notice": "Resume a paused stream"
      },
      "timePassed(uint256)": {
        "notice": "Calculates the strams time passed by giving the id"
      },
      "withdraw(uint256)": {
        "notice": "Allow the beneficiary to withdraw the proceeds"
      },
      "withdrawAll()": {
        "notice": "Allow the beneficiary to withdraw the proceeds"
      },
      "withdrawFromWallet(uint256,address)": {
        "notice": "A method to withdraw from wallet"
      }
    },
    "version": 1
  },
  "storageLayout": {
    "storage": [
      {
        "astId": 1375,
        "contract": "contracts/FundU.sol:FundU",
        "label": "_status",
        "offset": 0,
        "slot": "0",
        "type": "t_uint256"
      },
      {
        "astId": 3260,
        "contract": "contracts/FundU.sol:FundU",
        "label": "s_protocolManager",
        "offset": 0,
        "slot": "1",
        "type": "t_address"
      },
      {
        "astId": 3272,
        "contract": "contracts/FundU.sol:FundU",
        "label": "s_feeManager",
        "offset": 0,
        "slot": "2",
        "type": "t_address"
      },
      {
        "astId": 3275,
        "contract": "contracts/FundU.sol:FundU",
        "label": "feeManager",
        "offset": 0,
        "slot": "3",
        "type": "t_contract(IFeeManager)2736"
      },
      {
        "astId": 3281,
        "contract": "contracts/FundU.sol:FundU",
        "label": "s_userBalanceByToken",
        "offset": 0,
        "slot": "4",
        "type": "t_mapping(t_address,t_mapping(t_address,t_uint256))"
      },
      {
        "astId": 1441,
        "contract": "contracts/FundU.sol:FundU",
        "label": "s_streamId",
        "offset": 0,
        "slot": "5",
        "type": "t_uint256"
      },
      {
        "astId": 1446,
        "contract": "contracts/FundU.sol:FundU",
        "label": "s_streamById",
        "offset": 0,
        "slot": "6",
        "type": "t_mapping(t_uint256,t_struct(StreamData)3156_storage)"
      },
      {
        "astId": 1451,
        "contract": "contracts/FundU.sol:FundU",
        "label": "s_beneficiaryStreamsIds",
        "offset": 0,
        "slot": "7",
        "type": "t_mapping(t_address,t_array(t_uint256)dyn_storage)"
      },
      {
        "astId": 1456,
        "contract": "contracts/FundU.sol:FundU",
        "label": "s_ownerStreamsIds",
        "offset": 0,
        "slot": "8",
        "type": "t_mapping(t_address,t_array(t_uint256)dyn_storage)"
      }
    ],
    "types": {
      "t_address": {
        "encoding": "inplace",
        "label": "address",
        "numberOfBytes": "20"
      },
      "t_array(t_uint256)dyn_storage": {
        "base": "t_uint256",
        "encoding": "dynamic_array",
        "label": "uint256[]",
        "numberOfBytes": "32"
      },
      "t_contract(IFeeManager)2736": {
        "encoding": "inplace",
        "label": "contract IFeeManager",
        "numberOfBytes": "20"
      },
      "t_enum(StreamStatus)3138": {
        "encoding": "inplace",
        "label": "enum FundUtils.StreamStatus",
        "numberOfBytes": "1"
      },
      "t_mapping(t_address,t_array(t_uint256)dyn_storage)": {
        "encoding": "mapping",
        "key": "t_address",
        "label": "mapping(address => uint256[])",
        "numberOfBytes": "32",
        "value": "t_array(t_uint256)dyn_storage"
      },
      "t_mapping(t_address,t_mapping(t_address,t_uint256))": {
        "encoding": "mapping",
        "key": "t_address",
        "label": "mapping(address => mapping(address => uint256))",
        "numberOfBytes": "32",
        "value": "t_mapping(t_address,t_uint256)"
      },
      "t_mapping(t_address,t_uint256)": {
        "encoding": "mapping",
        "key": "t_address",
        "label": "mapping(address => uint256)",
        "numberOfBytes": "32",
        "value": "t_uint256"
      },
      "t_mapping(t_uint256,t_struct(StreamData)3156_storage)": {
        "encoding": "mapping",
        "key": "t_uint256",
        "label": "mapping(uint256 => struct FundUtils.StreamData)",
        "numberOfBytes": "32",
        "value": "t_struct(StreamData)3156_storage"
      },
      "t_struct(StreamData)3156_storage": {
        "encoding": "inplace",
        "label": "struct FundUtils.StreamData",
        "members": [
          {
            "astId": 3140,
            "contract": "contracts/FundU.sol:FundU",
            "label": "deposit",
            "offset": 0,
            "slot": "0",
            "type": "t_uint256"
          },
          {
            "astId": 3142,
            "contract": "contracts/FundU.sol:FundU",
            "label": "balanceLeft",
            "offset": 0,
            "slot": "1",
            "type": "t_uint256"
          },
          {
            "astId": 3144,
            "contract": "contracts/FundU.sol:FundU",
            "label": "startTime",
            "offset": 0,
            "slot": "2",
            "type": "t_uint256"
          },
          {
            "astId": 3146,
            "contract": "contracts/FundU.sol:FundU",
            "label": "stopTime",
            "offset": 0,
            "slot": "3",
            "type": "t_uint256"
          },
          {
            "astId": 3148,
            "contract": "contracts/FundU.sol:FundU",
            "label": "beneficiary",
            "offset": 0,
            "slot": "4",
            "type": "t_address"
          },
          {
            "astId": 3150,
            "contract": "contracts/FundU.sol:FundU",
            "label": "owner",
            "offset": 0,
            "slot": "5",
            "type": "t_address"
          },
          {
            "astId": 3152,
            "contract": "contracts/FundU.sol:FundU",
            "label": "tokenAddress",
            "offset": 0,
            "slot": "6",
            "type": "t_address"
          },
          {
            "astId": 3155,
            "contract": "contracts/FundU.sol:FundU",
            "label": "status",
            "offset": 20,
            "slot": "6",
            "type": "t_enum(StreamStatus)3138"
          }
        ],
        "numberOfBytes": "224"
      },
      "t_uint256": {
        "encoding": "inplace",
        "label": "uint256",
        "numberOfBytes": "32"
      }
    }
  }
}